:0400000007EF00F016
:0A0008007D826BED0AF023EF11F08A
:10100000003738392F3435362A3132332D23303DED
:051010002B2569000022
:101016002C50800B356E2C502C24376E2BAE16EFD1
:1010260008F018EF08F019EF08F037803750D8B4F9
:101036001FEF08F021EF08F036EF08F03728D8A4A4
:1010460027EF08F029EF08F031EF08F0000E296EBF
:10105600000E2A6E000E2B6E000E2C6E2B8E000ECE
:101066002C6E3EEF08F0000E296E000E2A6E000E62
:101076002B6E000E2C6E3050800B366E35503618A7
:10108600D8B448EF08F04AEF08F04BEF08F0358C7B
:1010960030503024366E2FAE53EF08F055EF08F07F
:1010A60056EF08F036803650D8B45CEF08F05EEFA5
:1010B60008F073EF08F03628D8A464EF08F066EF5E
:1010C60008F06EEF08F0000E2D6E000E2E6E000E6C
:1010D6002F6E000E306E2F8E000E306E7BEF08F0F6
:1010E600000E2D6E000E2E6E000E2F6E000E306E50
:1010F6003750365CD8B082EF08F084EF08F0ABEFDB
:1011060008F035AC89EF08F08BEF08F08DEF08F0AA
:10111600800E351A37C038F036C037F038C036F092
:1011260029C038F02DC029F038C02DF02AC038F07B
:101136002EC02AF038C02EF02BC038F02FC02BF06E
:1011460038C02FF02CC038F030C02CF038C030F04A
:10115600000E386E375036C031F0326A315E000EFE
:10116600325A32BEC0EF08F0325009E11A0E315C35
:10117600D8A0C0EF08F0C2EF08F0F9EF08F0295048
:101186002A102B102C10D8A4CBEF08F0CEEF08F0C5
:10119600010ECFEF08F0000E386E000E296E000E1D
:1011A6002A6E000E2B6E000E2C6E36C037F002EF44
:1011B60009F038A0E1EF08F0E3EF08F0E9EF08F0F6
:1011C600D89038300109386EEBEF08F0D8903832F5
:1011D60029A0F0EF08F0F2EF08F0F3EF08F0388EF0
:1011E6002C342C322B322A322932372A3650375CAD
:1011F600D8A000EF09F002EF09F0DCEF08F035BCEB
:1012060007EF09F009EF09F049EF09F03750D8A4C4
:101216000FEF09F011EF09F01BEF09F0000E296E30
:10122600000E2A6E000E2B6E000E2C6E6AEF0AF070
:101236002D5029262E502A222F502B2230502C2278
:101246002CA028EF09F02AEF09F0D6EF09F038A014
:101256002FEF09F031EF09F037EF09F0D890383069
:101266000109386E39EF09F0D890383229A03EEFDF
:1012760009F040EF09F041EF09F0388E2C342C329A
:101286002B322A322932372AD6EF09F02D50295C23
:101296002E502A582F502B582C50800A316E305021
:1012A600800A3158D8B05AEF09F05CEF09F087EFA1
:1012B60009F029502D5C316E2A502E58326E2B5073
:1012C6002F58336E2C503058346EFF0E3124296E51
:1012D600FF0E32202A6EFF0E33202B6EFF0E3420B7
:1012E6002C6E800E351A386C3850D8A47DEF09F074
:1012F6007FEF09F08FEF09F0010E2926000E2A2252
:101306002B222C228FEF09F02D50295E2E502A5ABF
:101316002F502B5A30502C5A29502A102B102C1093
:10132600D8A498EF09F09AEF09F0CFEF09F03850FA
:10133600D8A4A0EF09F0A2EF09F0CFEF09F0000E54
:10134600296E000E2A6E000E2B6E000E2C6E6AEFB2
:101356000AF0D89029362A362B362C3638AEB6EF18
:1013660009F0B8EF09F0B9EF09F0298038A0BEEF0F
:1013760009F0C0EF09F0C4EF09F0D8803836C6EF9F
:1013860009F0D89038363750D8B4CCEF09F0CEEF04
:1013960009F0CFEF09F037062BAED4EF09F0D6EF00
:1013A60009F0ACEF09F0000E366E38AEDDEF09F04D
:1013B600DFEF09F0F7EF09F038C031F07F0E311694
:1013C600D8B4E8EF09F0EAEF09F0EEEF09F0010E04
:1013D600366EF7EF09F029A0F3EF09F0F5EF09F003
:1013E600F7EF09F0EAEF09F03650D8B4FDEF09F04F
:1013F600FFEF09F02AEF0AF0010E2926000E2A2235
:101406002B222C222CA00AEF0AF00CEF0AF02AEF6E
:101416000AF029C031F02AC032F02BC033F02CC0BC
:1014260034F03434343233323232313231C029F08E
:1014360032C02AF033C02BF034C02CF03728D8B491
:1014460027EF0AF029EF0AF02AEF0AF0372A3728A1
:10145600D8B430EF0AF032EF0AF03AEF0AF037501C
:10146600D8A438EF0AF03AEF0AF04CEF0AF0000E73
:10147600296E000E2A6E000E2B6E000E2C6E375053
:10148600D8A448EF0AF04AEF0AF04CEF0AF0000E33
:10149600356E37A051EF0AF053EF0AF056EF0AF017
:1014A6002B8E57EF0AF02B9ED89037302C6E35AE28
:1014B6005FEF0AF061EF0AF062EF0AF02C8E29C0A6
:1014C60029F02AC02AF02BC02BF02CC02CF01200D9
:1014D6000600F2A871EF0AF073EF0AF07CEF0AF04B
:1014E600F2A278EF0AF07AEF0AF07CEF0AF02AEC23
:1014F60012F0F0A681EF0AF083EF0AF08CEF0AF003
:10150600F0A088EF0AF08AEF0AF08CEF0AF028ECD8
:1015160012F0F0A891EF0AF093EF0AF09CEF0AF0B0
:10152600F0A298EF0AF09AEF0AF09CEF0AF026EC88
:1015360012F0F2A6A1EF0AF0A3EF0AF0BEEF0AF04E
:10154600F2A0A8EF0AF0AAEF0AF0BEEF0AF081A80F
:10155600AFEF0AF0B1EF0AF0BEEF0AF07C04D8A4B0
:10156600B7EF0AF0B9EF0AF0BEEF0AF0000E7C6E94
:10157600000EFAEC11F0F2A6C3EF0AF0C5EF0AF07E
:10158600E0EF0AF0F2A0CAEF0AF0CCEF0AF0E0EFC3
:101596000AF081B8D1EF0AF0D3EF0AF0E0EF0AF0D3
:1015A6007C50D8A4D9EF0AF0DBEF0AF0E0EF0AF09E
:1015B600010E7C6E010EFAEC11F0F2A6E5EF0AF0D0
:1015C600E7EF0AF002EF0BF0F2A0ECEF0AF0EEEF15
:1015D6000AF002EF0BF081AAF3EF0AF0F5EF0AF03A
:1015E60002EF0BF07B04D8A4FBEF0AF0FDEF0AF044
:1015F60002EF0BF0000E7B6E000EEDEC11F0F2A682
:1016060007EF0BF009EF0BF024EF0BF0F2A00EEF53
:101616000BF010EF0BF024EF0BF081BA15EF0BF087
:1016260017EF0BF024EF0BF07B50D8A41DEF0BF057
:101636001FEF0BF024EF0BF0010E7B6E010EEDECAD
:1016460011F0F2A629EF0BF02BEF0BF046EF0BF0A3
:10165600F2A030EF0BF032EF0BF046EF0BF081AC5F
:1016660037EF0BF039EF0BF046EF0BF07A04D8A406
:101676003FEF0BF041EF0BF046EF0BF0000E7A6EEA
:10168600000EE0EC11F0F2A64BEF0BF04DEF0BF075
:1016960068EF0BF0F2A052EF0BF054EF0BF068EF8F
:1016A6000BF081BC59EF0BF05BEF0BF068EF0BF022
:1016B6007A50D8A461EF0BF063EF0BF068EF0BF0F4
:1016C600010E7A6E010EE0EC11F0F2A66DEF0BF052
:1016D6006FEF0BF08AEF0BF0F2A074EF0BF076EFE2
:1016E6000BF08AEF0BF081AE7BEF0BF07DEF0BF08A
:1016F6008AEF0BF07904D8A483EF0BF085EF0BF09B
:101706008AEF0BF0000E796E000ED3EC11F0F2A604
:101716008FEF0BF091EF0BF0ACEF0BF0F2A096EF22
:101726000BF098EF0BF0ACEF0BF081BE9DEF0BF0DA
:101736009FEF0BF0ACEF0BF07950D8A4A5EF0BF0B0
:10174600A7EF0BF0ACEF0BF0010E796E010ED3ECA8
:1017560011F09DACB1EF0BF0B3EF0BF0BCEF0BF05B
:101766009EACB8EF0BF0BAEF0BF0BCEF0BF032EC1F
:1017760012F0F2AAC1EF0BF0C3EF0BF0CCEF0BF0B7
:10178600F2A4C8EF0BF0CAEF0BF0CCEF0BF013ECA2
:1017960012F09DA0D1EF0BF0D3EF0BF0DCEF0BF0C6
:1017A6009EA0D8EF0BF0DAEF0BF0DCEF0BF00DECB0
:1017B60012F09DA2E1EF0BF0E3EF0BF0ECEF0BF074
:1017C6009EA2E8EF0BF0EAEF0BF0ECEF0BF01FEC4C
:1017D60012F0A0A2F1EF0BF0F3EF0BF0FCEF0BF021
:1017E600A1A2F8EF0BF0FAEF0BF0FCEF0BF007EC11
:1017F60012F09DA401EF0CF003EF0CF00CEF0CF0CF
:101806009EA408EF0CF00AEF0CF00CEF0CF030EC95
:1018160012F0A0A011EF0CF013EF0CF01CEF0CF07F
:10182600A1A018EF0CF01AEF0CF01CEF0CF02EEC48
:1018360012F09DA821EF0CF023EF0CF02CEF0CF02A
:101846009EA828EF0CF02AEF0CF02CEF0CF02CECF5
:1018560012F09DAA31EF0CF033EF0CF03CEF0CF0D8
:101866009EAA38EF0CF03AEF0CF03CEF0CF038EC97
:1018760012F09DA641EF0CF043EF0CF04CEF0CF08C
:101886009EA648EF0CF04AEF0CF04CEF0CF035EC4E
:1018960012F09DA651EF0CF053EF0CF05CEF0CF03C
:1018A6009EA658EF0CF05AEF0CF05CEF0CF036ECFD
:1018B60012F0A0A661EF0CF063EF0CF06CEF0CF0E9
:1018C600A1A668EF0CF06AEF0CF06CEF0CF037ECA9
:1018D60012F07D9211001350800B206E13501324CA
:1018E600276E12AE79EF0CF07BEF0CF07CEF0CF06C
:1018F60027802750D8B482EF0CF084EF0CF099EFD4
:101906000CF02728D8A48AEF0CF08CEF0CF094EF9B
:101916000CF0000E106E000E116E000E126E000E10
:10192600136E128E000E136EA1EF0CF0000E106EE9
:10193600000E116E000E126E000E136E1750800B05
:10194600201A17501724286E16AEACEF0CF0AEEF27
:101956000CF0AFEF0CF028802850D8B4B5EF0CF09F
:10196600B7EF0CF0CCEF0CF02828D8A4BDEF0CF0A4
:10197600BFEF0CF0C7EF0CF0000E146E000E156EE4
:10198600000E166E000E176E168E000E176ED4EF32
:101996000CF0000E146E000E156E000E166E000E84
:1019A600176E1450151016101710D8A4DDEF0CF092
:1019B600DFEF0CF0F7EF0CF0000E106E000E116E5C
:1019C600000E126E000E136E800E12127F0E131290
:1019D6002050131210C010F011C011F012C012F0F6
:1019E60013C013F03AEF0EF02750D8A4FDEF0CF019
:1019F600FFEF0CF009EF0DF0000E106E000E116EE9
:101A0600000E126E000E136E3AEF0EF0285027C02D
:101A160018F0196A185E000E195A7F0E1824216EE6
:101A2600000E1920226E10C01CF011C01DF012C04D
:101A36001EF013C01FF0000E106E000E116E000E89
:101A4600126E000E136E000E236E000E246E000E34
:101A5600256E000E266E000E286E6AEF0DF02850D9
:101A6600D8B438EF0DF03AEF0DF051EF0DF0D890F5
:101A76001C361D361E361F36D890103611361236D5
:101A8600133626AE49EF0DF04BEF0DF04CEF0DF08F
:101A96001080D890233624362536263614501C5C02
:101AA60015501D5816501E5817501F58D8A05EEFD7
:101AB6000DF060EF0DF069EF0DF0268C14501C5EF2
:101AC60015501D5A16501E5A17501F5A282A190EFD
:101AD600286470EF0DF072EF0DF032EF0DF01C5030
:101AE6001D101E101F10D8B47BEF0DF07DEF0DF00A
:101AF60095EF0DF0238095EF0DF0D8901036113646
:101B06001236133626AE8AEF0DF08CEF0DF08DEF00
:101B16000DF01080D8902336243625362636210639
:101B2600D8A0220612AE9AEF0DF09CEF0DF080EFD2
:101B36000DF0000E286E26AEA3EF0DF0A5EF0DF00A
:101B4600C9EF0DF0FF0E2314186EFF0E2414196E44
:101B5600FF0E25141A6E7F0E26141B6E18501910D0
:101B66001A101B10D8B4BAEF0DF0BCEF0DF0C0EF91
:101B76000DF0010E286EC9EF0DF010A0C5EF0DF0A7
:101B8600C7EF0DF0C9EF0DF0BCEF0DF02850D8B43B
:101B9600CFEF0DF0D1EF0DF0F5EF0DF0010E1026A1
:101BA600000E11221222132213A0DCEF0DF0DEEF3D
:101BB6000DF0F5EF0DF010C018F011C019F012C0BD
:101BC6001AF013C01BF01B341B321A3219321832AA
:101BD60018C010F019C011F01AC012F01BC013F093
:101BE600214A222A22BE00EF0EF0225008E12128C7
:101BF600D8A000EF0EF002EF0EF00DEF0EF0000E83
:101C0600226E2168000E106E000E116E000E126E0E
:101C1600000E136E22BE1AEF0EF0225006E12104CA
:101C2600D8B018EF0EF01AEF0EF028EF0EF0000EF7
:101C3600226E000E216E000E106E000E116E000E4A
:101C4600126E000E136E000E206E21C027F027A024
:101C56002FEF0EF031EF0EF034EF0EF0128E35EF5F
:101C66000EF0129ED8902730136EEBEF0CF0120098
:101C7600010E466E43504410D8A444EF0EF046EFD2
:101C86000EF04AEF0EF0000E466E28EF0FF0C69AE1
:101C960020EE06F04350D9264450DA22DFA056EF54
:101CA6000EF058EF0EF0A6EF0EF020EE05F04350C2
:101CB600D9264450DA22DF50456EC6504518F00B3F
:101CC6004518C66E000E2D6E000E2E6E800E2F6EFF
:101CD600BF0E306E43C0D9FF44C0DAFFDECF02F03C
:101CE600DECF03F0DECF04F0DECF05F0000E2AECE7
:101CF6000FF002C014F003C015F004C016F005C0C2
:101D060017F0000E106E240E116EF40E126E490EB0
:101D1600136E6EEC0CF010C029F011C02AF012C040
:101D26002BF013C02CF00BEC08F029C039F02AC0B8
:101D36003AF02BC03BF02CC03CF004EC10F03950CC
:101D4600C86EE9EF0EF020EE06F04350D926445057
:101D5600DA22DFB0B1EF0EF0B3EF0EF0E9EF0EF0DE
:101D660020EE06F04350D9264450DA22DFA6BEEF15
:101D76000EF0C0EF0EF0C3EF0EF0C58ED1EF0EF0F1
:101D860020EE06F04350D9264450DA22DFB6CEEFD5
:101D96000EF0D0EF0EF0D1EF0EF0C59EC69EC69C9B
:101DA600C68820EE04F04350D9264450DA22DF508C
:101DB600C86E20EE05F04350D9264450DA22DF5093
:101DC600456EC6504518F00B4518C66E9486948825
:101DD60020EE06F04350D9264450DA22DFB2F6EF61
:101DE6000EF0F8EF0EF0FBEF0EF0C79E09EF0FF0C6
:101DF60020EE06F04350D9264450DA22DFA206EF41
:101E06000FF008EF0FF009EF0FF0C78E20EE06F087
:101E16004350D9264450DA22DFA414EF0FF016EF10
:101E26000FF019EF0FF0C78C27EF0FF020EE06F03A
:101E36004350D9264450DA22DFB424EF0FF026EFC0
:101E46000FF027EF0FF0C79CC68A465012000A6EA5
:101E56000A50D8B431EF0FF033EF0FF055EF0FF013
:101E660005BE3AEF0FF038EF0FF055EF0FF002C056
:101E760006F003C007F004C008F005C009F0061E0E
:101E8600071E081E091E062A000E0722082209221E
:101E960006C00CF007C00DF008C00EF009C00FF028
:101EA6005DEF0FF002C00CF003C00DF004C00EF0A1
:101EB60005C00FF00250031004100510D8A466EFF9
:101EC6000FF068EF0FF072EF0FF0000E026E000ECB
:101ED600036E000E046E000E056E03EF10F0960EF4
:101EE6000B6E7CEF0FF00B2AD8900F320E320D32AC
:101EF6000C32000E0C14066E000E0D14076E000E4A
:101F06000E14086EFE0E0F14096E06500710081008
:101F16000910D8A491EF0FF093EF0FF076EF0FF0C2
:101F2600A1EF0FF00B2A010E0C26000E0D220E2239
:101F36000F22D8900F320E320D320C32000E0C14D6
:101F4600066E000E0D14076E000E0E14086EFF0EC0
:101F56000F14096E0650071008100910D8A4B6EF22
:101F66000FF0B8EF0FF095EF0FF0C0EF0FF00B0684
:101F7600D8900C360D360E360F360EBEC5EF0FF066
:101F8600C7EF0FF0CFEF0FF0020E0B60CDEF0FF0A3
:101F9600CFEF0FF0BAEF0FF00BB0D4EF0FF0D6EF94
:101FA6000FF0D7EF0FF00E9ED8900B320BC006F055
:101FB600076A086A096A06C009F0086A076A066AB3
:101FC60006500C1207500D1208500E1209500F122F
:101FD6000A50D8B4F1EF0FF0F3EF0FF0FBEF0FF06C
:101FE60005BEFAEF0FF0F8EF0FF0FBEF0FF00F8ED4
:101FF6000CC002F00DC003F00EC004F00FC005F0D7
:1020060012003B343C34426E4250D8A40DEF10F01F
:102016000FEF10F019EF10F0000E396E000E3A6E49
:10202600000E3B6E000E3C6E86EF10F039C03DF0A0
:102036003AC03EF03BC03FF03CC040F0200E29EFD6
:1020460010F0D89040323F323E323D32E82E24EF37
:1020560010F03D50416E3B8EFF0E3916FF0E3A16BC
:10206600FF0E3B16000E3C16960E425E42BE40EF39
:1020760010F03EEF10F056EF10F04250800A970F26
:10208600D8B048EF10F04AEF10F04CEF10F00FEF19
:1020960010F0D8903C323B323A323932423E4CEF65
:1020A60010F06EEF10F01F0E42645CEF10F05EEF62
:1020B60010F066EF10F00FEF10F0D89039363A3680
:1020C6003B363C3642064250D8A46CEF10F06EEF19
:1020D60010F060EF10F04150D8B474EF10F076EFC6
:1020E60010F07EEF10F03C1E3B1E3A1E396C000EBF
:1020F6003A223B223C2239C039F03AC03AF03BC082
:102106003BF03CC03CF0120023EC12F09E0E436EF6
:10211600000E446E3BEC0EF0610E086E600E54EC41
:1021260011F0060E0001BE6F130EBD6FAD0EE82E48
:10213600FED7BD2FFCD7BE2FFAD700D0620E086E91
:10214600620E54EC11F0060E0001BE6F130EBD6F49
:10215600AD0EE82EFED7BD2FFCD7BE2FFAD700D086
:10216600630E086E600E54EC11F0060E0001BE6F91
:10217600130EBD6FAD0EE82EFED7BD2FFCD7BE2FBA
:10218600FAD700D0640E086E620E54EC11F0060EFB
:102196000001BE6F130EBD6FAD0EE82EFED7BD2F2C
:1021A600FCD7BE2FFAD700D0010E0001A527000EDE
:1021B600A623A723A8238FEF10F007EF00F0010E48
:1021C600076E02500310D8B4EBEF10F0EDEF10F0ED
:1021D600F6EF10F005500610D8A4F4EF10F0F6EF65
:1021E60010F0FAEF10F0000E076E21EF11F004C0A8
:1021F600C9FF9EA601EF11F003EF11F0FCEF10F0FE
:102206009E96C5BC09EF11F00BEF11F012EF11F01D
:1022160005C0D9FF06C0DAFFDF6A21EF11F0C5ACB1
:1022260017EF11F019EF11F021EF11F005C0D9FFEA
:1022360006C0DAFF010EDF6E21EF11F00750120023
:10224600800EF66E230EF76E000EF86E00EE80F02E
:1022560010EE25F00900F5CFEEFFE550E150FAE16A
:10226600320EF66E240EF76E000EF86E00EE72F069
:1022760010EE0BF00900F5CFEEFFE550E150FAE164
:1022860000EEA5F0180EEE6AE806FDE100EE47F056
:102296002B0EEE6AE806FDE17D907D92000187EF48
:1022A60010F0096E9E0E026E000E036E9DEC11F08C
:1022B6009E0E026E000E036E09C004F0710E056ECE
:1022C600000E066EE2EC10F09E0E026E000E036E1D
:1022D60008C004F0710E056E000E066EE2EC10F0FA
:1022E6009E0E026E000E036E7AEC11F01200010EC5
:1022F600046E02500310D8A483EF11F085EF11F09D
:1023060089EF11F0000E046E9BEF11F0C584C5B481
:102316008FEF11F091EF11F08AEF11F09E96C7B88A
:1023260097EF11F099EF11F09BEF11F085EF11F097
:1023360004501200010E046E02500310D8A4A6EF3A
:1023460011F0A8EF11F0ACEF11F0000E046EBEEF25
:1023560011F0C580C5B0B2EF11F0B4EF11F0ADEFDA
:1023660011F09E96C7B6BAEF11F0BCEF11F0BEEFB2
:1023760011F0A8EF11F004501200800F810F820FA8
:10238600830F840F890F8A0F8B0F8C0F8D0F920F7F
:0F239600930F940F950F960FA086010000080378
:1023A600016EF2900150D8A4DBEF11F0DDEF11F0D1
:1023B600DFEF11F0DFEF11F01200016EF290015025
:1023C600D8A4E8EF11F0EAEF11F0ECEF11F0ECEF22
:1023D60011F01200016EF2900150D8A4F5EF11F041
:1023E600F7EF11F0F9EF11F0F9EF11F01200016EAD
:1023F600F2900150D8A402EF12F004EF12F006EFAB
:1024060012F006EF12F01200A1924850B36E47C0C8
:10241600B2FF12009E904A50CF6E49C0CEFF120006
:10242600F2944C50D76E4BC0D6FF1200685A622AFF
:072436001A622A01010101F5
:10243E009E9269C0CCFF120034EC12F01200F092A2
:10244E001200F0901200F29212009D981200A190CC
:10245E0012009E9412009E9C120012001200120096
:04246E001200120046
:020000040020DA
:08000000FFFFFFFFFFFFFFFF00
:020000040030CA
:0E000000FF02091EFF8181FF0FC00FE00F40BD
:00000001FF
